{
  "_format": "hh-sol-artifact-1",
  "contractName": "DelegateContribute",
  "sourceName": "contracts/DelegateContribute.sol",
  "abi": [
    {
      "inputs": [
        {
          "internalType": "address",
          "name": "_veOLAS",
          "type": "address"
        }
      ],
      "stateMutability": "nonpayable",
      "type": "constructor"
    },
    {
      "inputs": [
        {
          "internalType": "address",
          "name": "delegator",
          "type": "address"
        },
        {
          "internalType": "address",
          "name": "delegatee",
          "type": "address"
        }
      ],
      "name": "AlreadyDelegatedToSameDelegatee",
      "type": "error"
    },
    {
      "inputs": [
        {
          "internalType": "address",
          "name": "delegator",
          "type": "address"
        }
      ],
      "name": "NoBalance",
      "type": "error"
    },
    {
      "inputs": [
        {
          "internalType": "address",
          "name": "delegator",
          "type": "address"
        }
      ],
      "name": "NoSelfDelegation",
      "type": "error"
    },
    {
      "anonymous": false,
      "inputs": [
        {
          "indexed": true,
          "internalType": "address",
          "name": "delegator",
          "type": "address"
        },
        {
          "indexed": true,
          "internalType": "address",
          "name": "delegatee",
          "type": "address"
        }
      ],
      "name": "Delegation",
      "type": "event"
    },
    {
      "inputs": [
        {
          "internalType": "address",
          "name": "delegatee",
          "type": "address"
        }
      ],
      "name": "delegate",
      "outputs": [],
      "stateMutability": "nonpayable",
      "type": "function"
    },
    {
      "inputs": [
        {
          "internalType": "address",
          "name": "delegatee",
          "type": "address"
        }
      ],
      "name": "getDelegatorList",
      "outputs": [
        {
          "internalType": "address[]",
          "name": "",
          "type": "address[]"
        }
      ],
      "stateMutability": "view",
      "type": "function"
    },
    {
      "inputs": [
        {
          "internalType": "address",
          "name": "",
          "type": "address"
        }
      ],
      "name": "mapDelegation",
      "outputs": [
        {
          "internalType": "address",
          "name": "",
          "type": "address"
        }
      ],
      "stateMutability": "view",
      "type": "function"
    },
    {
      "inputs": [],
      "name": "veOLAS",
      "outputs": [
        {
          "internalType": "address",
          "name": "",
          "type": "address"
        }
      ],
      "stateMutability": "view",
      "type": "function"
    },
    {
      "inputs": [
        {
          "internalType": "address",
          "name": "delegatee",
          "type": "address"
        }
      ],
      "name": "votingPower",
      "outputs": [
        {
          "internalType": "uint256",
          "name": "totalVotingPower",
          "type": "uint256"
        }
      ],
      "stateMutability": "view",
      "type": "function"
    }
  ],
  "bytecode": "0x60a060405234801561000f575f80fd5b50604051610ba2380380610ba283398101604081905261002e9161003f565b6001600160a01b031660805261006c565b5f6020828403121561004f575f80fd5b81516001600160a01b0381168114610065575f80fd5b9392505050565b608051610b0a6100985f395f8181606d0152818161027b015281816106f901526108040152610b0a5ff3fe608060405234801561000f575f80fd5b5060043610610064575f3560e01c80635c19a95c1161004d5780635c19a95c146100ee578063c07473f614610103578063e318df1114610124575f80fd5b80633c574ffd1461006857806355c3f662146100b9575b5f80fd5b61008f7f000000000000000000000000000000000000000000000000000000000000000081565b60405173ffffffffffffffffffffffffffffffffffffffff90911681526020015b60405180910390f35b61008f6100c7366004610977565b5f6020819052908152604090205473ffffffffffffffffffffffffffffffffffffffff1681565b6101016100fc366004610977565b610144565b005b610116610111366004610977565b610687565b6040519081526020016100b0565b610137610132366004610977565b6108ea565b6040516100b091906109b1565b3373ffffffffffffffffffffffffffffffffffffffff821681036101b1576040517fd68a8c2800000000000000000000000000000000000000000000000000000000815273ffffffffffffffffffffffffffffffffffffffff821660048201526024015b60405180910390fd5b73ffffffffffffffffffffffffffffffffffffffff8082165f9081526020819052604090205481169083168103610234576040517f0294b0e000000000000000000000000000000000000000000000000000000000815273ffffffffffffffffffffffffffffffffffffffff8084166004830152841660248201526044016101a8565b6040517f70a0823100000000000000000000000000000000000000000000000000000000815273ffffffffffffffffffffffffffffffffffffffff83811660048301525f917f0000000000000000000000000000000000000000000000000000000000000000909116906370a0823190602401602060405180830381865afa1580156102c2573d5f803e3d5ffd5b505050506040513d601f19601f820116820180604052508101906102e69190610a0a565b9050805f03610339576040517f8cb85f5200000000000000000000000000000000000000000000000000000000815273ffffffffffffffffffffffffffffffffffffffff841660048201526024016101a8565b73ffffffffffffffffffffffffffffffffffffffff8216156105585773ffffffffffffffffffffffffffffffffffffffff8083165f90815260026020908152604080832093871683529290522054610392600182610a4e565b73ffffffffffffffffffffffffffffffffffffffff84165f9081526001602081905260408220805493945091926103c99190610a4e565b815481106103d9576103d9610a67565b5f91825260208083209091015473ffffffffffffffffffffffffffffffffffffffff87811684526001909252604090922080549190921692508291908490811061042557610425610a67565b5f91825260209091200180547fffffffffffffffffffffffff00000000000000000000000000000000000000001673ffffffffffffffffffffffffffffffffffffffff9290921691909117905561047d826001610a94565b73ffffffffffffffffffffffffffffffffffffffff8086165f818152600260209081526040808320948716835293815283822094909455908152600190925290208054806104cd576104cd610aa7565b5f828152602080822083017fffffffffffffffffffffffffffffffffffffffffffffffffffffffffffffffff90810180547fffffffffffffffffffffffff000000000000000000000000000000000000000016905590920190925573ffffffffffffffffffffffffffffffffffffffff86811683526002825260408084209189168452915281205550505b73ffffffffffffffffffffffffffffffffffffffff8381165f90815260208190526040902080547fffffffffffffffffffffffff0000000000000000000000000000000000000000169186169182179055156106275773ffffffffffffffffffffffffffffffffffffffff8481165f8181526001602081815260408084208054938401815580855282852090930180547fffffffffffffffffffffffff000000000000000000000000000000000000000016968a16968717905593835290546002825283832094835293905220555b8373ffffffffffffffffffffffffffffffffffffffff168373ffffffffffffffffffffffffffffffffffffffff167fd000f39f92c3ed77f890f16b6ced1555e0ab2cdf470522d2210de67d8c83d45b60405160405180910390a350505050565b73ffffffffffffffffffffffffffffffffffffffff8181165f9081526020819052604081205490911661076f576040517f9ab24eb000000000000000000000000000000000000000000000000000000000815273ffffffffffffffffffffffffffffffffffffffff83811660048301527f00000000000000000000000000000000000000000000000000000000000000001690639ab24eb090602401602060405180830381865afa15801561073e573d5f803e3d5ffd5b505050506040513d601f19601f820116820180604052508101906107629190610a0a565b61076c9082610a94565b90505b73ffffffffffffffffffffffffffffffffffffffff82165f908152600160209081526040808320805482518185028101850190935280835291929091908301828280156107f057602002820191905f5260205f20905b815473ffffffffffffffffffffffffffffffffffffffff1681526001909101906020018083116107c5575b505050505090505f5b81518110156108e3577f000000000000000000000000000000000000000000000000000000000000000073ffffffffffffffffffffffffffffffffffffffff16639ab24eb083838151811061085057610850610a67565b60200260200101516040518263ffffffff1660e01b8152600401610890919073ffffffffffffffffffffffffffffffffffffffff91909116815260200190565b602060405180830381865afa1580156108ab573d5f803e3d5ffd5b505050506040513d601f19601f820116820180604052508101906108cf9190610a0a565b6108d99084610a94565b92506001016107f9565b5050919050565b73ffffffffffffffffffffffffffffffffffffffff81165f9081526001602090815260409182902080548351818402810184019094528084526060939283018282801561096b57602002820191905f5260205f20905b815473ffffffffffffffffffffffffffffffffffffffff168152600190910190602001808311610940575b50505050509050919050565b5f60208284031215610987575f80fd5b813573ffffffffffffffffffffffffffffffffffffffff811681146109aa575f80fd5b9392505050565b602080825282518282018190525f9190848201906040850190845b818110156109fe57835173ffffffffffffffffffffffffffffffffffffffff16835292840192918401916001016109cc565b50909695505050505050565b5f60208284031215610a1a575f80fd5b5051919050565b7f4e487b71000000000000000000000000000000000000000000000000000000005f52601160045260245ffd5b81810381811115610a6157610a61610a21565b92915050565b7f4e487b71000000000000000000000000000000000000000000000000000000005f52603260045260245ffd5b80820180821115610a6157610a61610a21565b7f4e487b71000000000000000000000000000000000000000000000000000000005f52603160045260245ffdfea264697066735822122026e3bdfe41a9e733ec16eeba5c0f3587b139898826fd93fb67cd0b97dae39e9264736f6c63430008170033",
  "linkReferences": {},
  "deployedLinkReferences": {}
}