{
  "_format": "hh-sol-artifact-1",
  "contractName": "DynamicContribution",
  "sourceName": "contracts/DynamicContribution.sol",
  "abi": [
    {
      "inputs": [
        {
          "internalType": "string",
          "name": "_name",
          "type": "string"
        },
        {
          "internalType": "string",
          "name": "_symbol",
          "type": "string"
        },
        {
          "internalType": "string",
          "name": "_baseURI",
          "type": "string"
        }
      ],
      "stateMutability": "nonpayable",
      "type": "constructor"
    },
    {
      "inputs": [
        {
          "internalType": "uint256",
          "name": "provided",
          "type": "uint256"
        },
        {
          "internalType": "uint256",
          "name": "max",
          "type": "uint256"
        }
      ],
      "name": "Overflow",
      "type": "error"
    },
    {
      "inputs": [
        {
          "internalType": "address",
          "name": "sender",
          "type": "address"
        },
        {
          "internalType": "address",
          "name": "owner",
          "type": "address"
        }
      ],
      "name": "OwnerOnly",
      "type": "error"
    },
    {
      "inputs": [],
      "name": "ReentrancyGuard",
      "type": "error"
    },
    {
      "inputs": [],
      "name": "ZeroAddress",
      "type": "error"
    },
    {
      "inputs": [],
      "name": "ZeroValue",
      "type": "error"
    },
    {
      "anonymous": false,
      "inputs": [
        {
          "indexed": true,
          "internalType": "address",
          "name": "owner",
          "type": "address"
        },
        {
          "indexed": true,
          "internalType": "address",
          "name": "spender",
          "type": "address"
        },
        {
          "indexed": true,
          "internalType": "uint256",
          "name": "id",
          "type": "uint256"
        }
      ],
      "name": "Approval",
      "type": "event"
    },
    {
      "anonymous": false,
      "inputs": [
        {
          "indexed": true,
          "internalType": "address",
          "name": "owner",
          "type": "address"
        },
        {
          "indexed": true,
          "internalType": "address",
          "name": "operator",
          "type": "address"
        },
        {
          "indexed": false,
          "internalType": "bool",
          "name": "approved",
          "type": "bool"
        }
      ],
      "name": "ApprovalForAll",
      "type": "event"
    },
    {
      "anonymous": false,
      "inputs": [
        {
          "indexed": false,
          "internalType": "string",
          "name": "baseURI",
          "type": "string"
        }
      ],
      "name": "BaseURIChanged",
      "type": "event"
    },
    {
      "anonymous": false,
      "inputs": [
        {
          "indexed": true,
          "internalType": "address",
          "name": "owner",
          "type": "address"
        }
      ],
      "name": "OwnerUpdated",
      "type": "event"
    },
    {
      "anonymous": false,
      "inputs": [
        {
          "indexed": true,
          "internalType": "address",
          "name": "from",
          "type": "address"
        },
        {
          "indexed": true,
          "internalType": "address",
          "name": "to",
          "type": "address"
        },
        {
          "indexed": true,
          "internalType": "uint256",
          "name": "id",
          "type": "uint256"
        }
      ],
      "name": "Transfer",
      "type": "event"
    },
    {
      "inputs": [
        {
          "internalType": "address",
          "name": "spender",
          "type": "address"
        },
        {
          "internalType": "uint256",
          "name": "id",
          "type": "uint256"
        }
      ],
      "name": "approve",
      "outputs": [],
      "stateMutability": "nonpayable",
      "type": "function"
    },
    {
      "inputs": [
        {
          "internalType": "address",
          "name": "owner",
          "type": "address"
        }
      ],
      "name": "balanceOf",
      "outputs": [
        {
          "internalType": "uint256",
          "name": "",
          "type": "uint256"
        }
      ],
      "stateMutability": "view",
      "type": "function"
    },
    {
      "inputs": [],
      "name": "baseURI",
      "outputs": [
        {
          "internalType": "string",
          "name": "",
          "type": "string"
        }
      ],
      "stateMutability": "view",
      "type": "function"
    },
    {
      "inputs": [
        {
          "internalType": "uint256",
          "name": "tokenId",
          "type": "uint256"
        }
      ],
      "name": "burn",
      "outputs": [],
      "stateMutability": "nonpayable",
      "type": "function"
    },
    {
      "inputs": [
        {
          "internalType": "address",
          "name": "newOwner",
          "type": "address"
        }
      ],
      "name": "changeOwner",
      "outputs": [],
      "stateMutability": "nonpayable",
      "type": "function"
    },
    {
      "inputs": [
        {
          "internalType": "uint256",
          "name": "tokenId",
          "type": "uint256"
        }
      ],
      "name": "exists",
      "outputs": [
        {
          "internalType": "bool",
          "name": "",
          "type": "bool"
        }
      ],
      "stateMutability": "view",
      "type": "function"
    },
    {
      "inputs": [
        {
          "internalType": "uint256",
          "name": "",
          "type": "uint256"
        }
      ],
      "name": "getApproved",
      "outputs": [
        {
          "internalType": "address",
          "name": "",
          "type": "address"
        }
      ],
      "stateMutability": "view",
      "type": "function"
    },
    {
      "inputs": [
        {
          "internalType": "address",
          "name": "",
          "type": "address"
        },
        {
          "internalType": "address",
          "name": "",
          "type": "address"
        }
      ],
      "name": "isApprovedForAll",
      "outputs": [
        {
          "internalType": "bool",
          "name": "",
          "type": "bool"
        }
      ],
      "stateMutability": "view",
      "type": "function"
    },
    {
      "inputs": [],
      "name": "mint",
      "outputs": [
        {
          "internalType": "uint256",
          "name": "tokenId",
          "type": "uint256"
        }
      ],
      "stateMutability": "nonpayable",
      "type": "function"
    },
    {
      "inputs": [
        {
          "internalType": "address",
          "name": "account",
          "type": "address"
        }
      ],
      "name": "mintFor",
      "outputs": [
        {
          "internalType": "uint256",
          "name": "tokenId",
          "type": "uint256"
        }
      ],
      "stateMutability": "nonpayable",
      "type": "function"
    },
    {
      "inputs": [],
      "name": "name",
      "outputs": [
        {
          "internalType": "string",
          "name": "",
          "type": "string"
        }
      ],
      "stateMutability": "view",
      "type": "function"
    },
    {
      "inputs": [],
      "name": "owner",
      "outputs": [
        {
          "internalType": "address",
          "name": "",
          "type": "address"
        }
      ],
      "stateMutability": "view",
      "type": "function"
    },
    {
      "inputs": [
        {
          "internalType": "uint256",
          "name": "id",
          "type": "uint256"
        }
      ],
      "name": "ownerOf",
      "outputs": [
        {
          "internalType": "address",
          "name": "owner",
          "type": "address"
        }
      ],
      "stateMutability": "view",
      "type": "function"
    },
    {
      "inputs": [
        {
          "internalType": "address",
          "name": "from",
          "type": "address"
        },
        {
          "internalType": "address",
          "name": "to",
          "type": "address"
        },
        {
          "internalType": "uint256",
          "name": "id",
          "type": "uint256"
        }
      ],
      "name": "safeTransferFrom",
      "outputs": [],
      "stateMutability": "nonpayable",
      "type": "function"
    },
    {
      "inputs": [
        {
          "internalType": "address",
          "name": "from",
          "type": "address"
        },
        {
          "internalType": "address",
          "name": "to",
          "type": "address"
        },
        {
          "internalType": "uint256",
          "name": "id",
          "type": "uint256"
        },
        {
          "internalType": "bytes",
          "name": "data",
          "type": "bytes"
        }
      ],
      "name": "safeTransferFrom",
      "outputs": [],
      "stateMutability": "nonpayable",
      "type": "function"
    },
    {
      "inputs": [
        {
          "internalType": "address",
          "name": "operator",
          "type": "address"
        },
        {
          "internalType": "bool",
          "name": "approved",
          "type": "bool"
        }
      ],
      "name": "setApprovalForAll",
      "outputs": [],
      "stateMutability": "nonpayable",
      "type": "function"
    },
    {
      "inputs": [
        {
          "internalType": "string",
          "name": "bURI",
          "type": "string"
        }
      ],
      "name": "setBaseURI",
      "outputs": [],
      "stateMutability": "nonpayable",
      "type": "function"
    },
    {
      "inputs": [
        {
          "internalType": "bytes4",
          "name": "interfaceId",
          "type": "bytes4"
        }
      ],
      "name": "supportsInterface",
      "outputs": [
        {
          "internalType": "bool",
          "name": "",
          "type": "bool"
        }
      ],
      "stateMutability": "view",
      "type": "function"
    },
    {
      "inputs": [],
      "name": "symbol",
      "outputs": [
        {
          "internalType": "string",
          "name": "",
          "type": "string"
        }
      ],
      "stateMutability": "view",
      "type": "function"
    },
    {
      "inputs": [
        {
          "internalType": "uint256",
          "name": "id",
          "type": "uint256"
        }
      ],
      "name": "tokenByIndex",
      "outputs": [
        {
          "internalType": "uint256",
          "name": "tokenId",
          "type": "uint256"
        }
      ],
      "stateMutability": "view",
      "type": "function"
    },
    {
      "inputs": [
        {
          "internalType": "uint256",
          "name": "tokenId",
          "type": "uint256"
        }
      ],
      "name": "tokenURI",
      "outputs": [
        {
          "internalType": "string",
          "name": "",
          "type": "string"
        }
      ],
      "stateMutability": "view",
      "type": "function"
    },
    {
      "inputs": [],
      "name": "totalSupply",
      "outputs": [
        {
          "internalType": "uint256",
          "name": "",
          "type": "uint256"
        }
      ],
      "stateMutability": "view",
      "type": "function"
    },
    {
      "inputs": [
        {
          "internalType": "address",
          "name": "from",
          "type": "address"
        },
        {
          "internalType": "address",
          "name": "to",
          "type": "address"
        },
        {
          "internalType": "uint256",
          "name": "id",
          "type": "uint256"
        }
      ],
      "name": "transferFrom",
      "outputs": [],
      "stateMutability": "nonpayable",
      "type": "function"
    }
  ],
  "bytecode": "0x608060405260016009553480156200001657600080fd5b506040516200197d3803806200197d83398101604081905262000039916200014d565b828260006200004983826200026d565b5060016200005882826200026d565b50600791506200006b905082826200026d565b5050600680546001600160a01b0319163317905550620003399050565b634e487b7160e01b600052604160045260246000fd5b600082601f830112620000b057600080fd5b81516001600160401b0380821115620000cd57620000cd62000088565b604051601f8301601f19908116603f01168101908282118183101715620000f857620000f862000088565b816040528381526020925086838588010111156200011557600080fd5b600091505b838210156200013957858201830151818301840152908201906200011a565b600093810190920192909252949350505050565b6000806000606084860312156200016357600080fd5b83516001600160401b03808211156200017b57600080fd5b62000189878388016200009e565b94506020860151915080821115620001a057600080fd5b620001ae878388016200009e565b93506040860151915080821115620001c557600080fd5b50620001d4868287016200009e565b9150509250925092565b600181811c90821680620001f357607f821691505b6020821081036200021457634e487b7160e01b600052602260045260246000fd5b50919050565b601f8211156200026857600081815260208120601f850160051c81016020861015620002435750805b601f850160051c820191505b8181101562000264578281556001016200024f565b5050505b505050565b81516001600160401b0381111562000289576200028962000088565b620002a1816200029a8454620001de565b846200021a565b602080601f831160018114620002d95760008415620002c05750858301515b600019600386901b1c1916600185901b17855562000264565b600085815260208120601f198616915b828110156200030a57888601518255948401946001909101908401620002e9565b5085821015620003295787850151600019600388901b60f8161c191681555b5050505050600190811b01905550565b61163480620003496000396000f3fe608060405234801561001057600080fd5b506004361061018d5760003560e01c806355f804b3116100e357806395d89b411161008c578063b88d4fde11610066578063b88d4fde14610338578063c87b56dd1461034b578063e985e9c51461035e57600080fd5b806395d89b411461030a578063a22cb46514610312578063a6f9dae11461032557600080fd5b806370a08231116100bd57806370a08231146102d157806371e578dc146102e45780638da5cb5b146102f757600080fd5b806355f804b3146102a35780636352211e146102b65780636c0360eb146102c957600080fd5b806318160ddd1161014557806342966c681161011f57806342966c681461026a5780634f558e791461027d5780634f6ccce71461029057600080fd5b806318160ddd1461023b57806323b872dd1461024457806342842e0e1461025757600080fd5b8063081812fc11610176578063081812fc146101cf578063095ea7b3146102105780631249c58b1461022557600080fd5b806301ffc9a71461019257806306fdde03146101ba575b600080fd5b6101a56101a036600461107f565b61038c565b60405190151581526020015b60405180910390f35b6101c26103de565b6040516101b191906110c7565b6101f86101dd3660046110fa565b6004602052600090815260409020546001600160a01b031681565b6040516001600160a01b0390911681526020016101b1565b61022361021e36600461112a565b61046c565b005b61022d610553565b6040519081526020016101b1565b61022d60085481565b610223610252366004611154565b6105a7565b610223610265366004611154565b610781565b6102236102783660046110fa565b610879565b6101a561028b3660046110fa565b6108cd565b61022d61029e3660046110fa565b6108ef565b6102236102b13660046111a6565b610934565b6101f86102c43660046110fa565b6109dd565b6101c2610a2f565b61022d6102df366004611257565b610a3c565b61022d6102f2366004611257565b610ab0565b6006546101f8906001600160a01b031681565b6101c2610b06565b610223610320366004611272565b610b13565b610223610333366004611257565b610b7f565b6102236103463660046112ae565b610c30565b6101c26103593660046110fa565b610d18565b6101a561036c366004611349565b600560209081526000928352604080842090915290825290205460ff1681565b60006301ffc9a760e01b6001600160e01b0319831614806103bd57506380ac58cd60e01b6001600160e01b03198316145b806103d85750635b5e139f60e01b6001600160e01b03198316145b92915050565b600080546103eb9061137c565b80601f01602080910402602001604051908101604052809291908181526020018280546104179061137c565b80156104645780601f1061043957610100808354040283529160200191610464565b820191906000526020600020905b81548152906001019060200180831161044757829003601f168201915b505050505081565b6000818152600260205260409020546001600160a01b0316338114806104b557506001600160a01b038116600090815260056020908152604080832033845290915290205460ff165b6104f75760405162461bcd60e51b815260206004820152600e60248201526d1393d517d055551213d49256915160921b60448201526064015b60405180910390fd5b60008281526004602052604080822080546001600160a01b0319166001600160a01b0387811691821790925591518593918516917f8c5be1e5ebec7d5bd14f71427d1e84f3dd0314c0f7b2291e5b200ac8c7c3b92591a4505050565b600060016009541115610579576040516345f5ce8b60e11b815260040160405180910390fd5b5060026009556008548061058c816113cc565b6008819055915061059f90503382610d4c565b600160095590565b6000818152600260205260409020546001600160a01b038481169116146106105760405162461bcd60e51b815260206004820152600a60248201527f57524f4e475f46524f4d0000000000000000000000000000000000000000000060448201526064016104ee565b6001600160a01b03821661065a5760405162461bcd60e51b81526020600482015260116024820152701253959053125117d49150d25412515395607a1b60448201526064016104ee565b336001600160a01b038416148061069457506001600160a01b038316600090815260056020908152604080832033845290915290205460ff165b806106b557506000818152600460205260409020546001600160a01b031633145b6106f25760405162461bcd60e51b815260206004820152600e60248201526d1393d517d055551213d49256915160921b60448201526064016104ee565b6001600160a01b0380841660008181526003602090815260408083208054600019019055938616808352848320805460010190558583526002825284832080546001600160a01b03199081168317909155600490925284832080549092169091559251849392917fddf252ad1be2c89b69c2b068fc378daa952ba7f163c4a11628f55a4df523b3ef91a4505050565b61078c8383836105a7565b6001600160a01b0382163b15806108355750604051630a85bd0160e11b8082523360048301526001600160a01b03858116602484015260448301849052608060648401526000608484015290919084169063150b7a029060a4016020604051808303816000875af1158015610805573d6000803e3d6000fd5b505050506040513d601f19601f8201168201806040525081019061082991906113e5565b6001600160e01b031916145b6108745760405162461bcd60e51b815260206004820152601060248201526f155394d0519157d49150d2541251539560821b60448201526064016104ee565b505050565b6000610884826109dd565b9050336001600160a01b038216146108c05760405163521eb56d60e11b81523360048201526001600160a01b03821660248201526044016104ee565b6108c982610e3b565b5050565b600080821180156103d857506008546108e7906001611402565b821092915050565b60006108fc826001611402565b905060085481111561092f57600854604051637ae5968560e01b81526104ee918391600401918252602082015260400190565b919050565b6006546001600160a01b031633146109745760065460405163521eb56d60e11b81523360048201526001600160a01b0390911660248201526044016104ee565b805160000361099657604051637c946ed760e01b815260040160405180910390fd5b60076109a28282611463565b507f5411e8ebf1636d9e83d5fc4900bf80cbac82e8790da2a4c94db4895e889eedf6816040516109d291906110c7565b60405180910390a150565b6000818152600260205260409020546001600160a01b03168061092f5760405162461bcd60e51b815260206004820152600a6024820152691393d517d3525395115160b21b60448201526064016104ee565b600780546103eb9061137c565b60006001600160a01b038216610a945760405162461bcd60e51b815260206004820152600c60248201527f5a45524f5f41444452455353000000000000000000000000000000000000000060448201526064016104ee565b506001600160a01b031660009081526003602052604090205490565b600060016009541115610ad6576040516345f5ce8b60e11b815260040160405180910390fd5b50600260095560085480610ae9816113cc565b60088190559150610afc90508282610d4c565b6001600955919050565b600180546103eb9061137c565b3360008181526005602090815260408083206001600160a01b03871680855290835292819020805460ff191686151590811790915590519081529192917f17307eab39ab6107e8899845ad3d59bd9653f200f220920489ca2b5937696c31910160405180910390a35050565b6006546001600160a01b03163314610bbf5760065460405163521eb56d60e11b81523360048201526001600160a01b0390911660248201526044016104ee565b6001600160a01b038116610be65760405163d92e233d60e01b815260040160405180910390fd5b600680546001600160a01b0319166001600160a01b0383169081179091556040517f4ffd725fc4a22075e9ec71c59edf9c38cdeb588a91b24fc5b61388c5be41282b90600090a250565b610c3b8585856105a7565b6001600160a01b0384163b1580610cd25750604051630a85bd0160e11b808252906001600160a01b0386169063150b7a0290610c839033908a90899089908990600401611523565b6020604051808303816000875af1158015610ca2573d6000803e3d6000fd5b505050506040513d601f19601f82011682018060405250810190610cc691906113e5565b6001600160e01b031916145b610d115760405162461bcd60e51b815260206004820152601060248201526f155394d0519157d49150d2541251539560821b60448201526064016104ee565b5050505050565b60606007610d2583610f08565b604051602001610d36929190611577565b6040516020818303038152906040529050919050565b610d568282610f4c565b6001600160a01b0382163b1580610dfc5750604051630a85bd0160e11b80825233600483015260006024830181905260448301849052608060648401526084830152906001600160a01b0384169063150b7a029060a4016020604051808303816000875af1158015610dcc573d6000803e3d6000fd5b505050506040513d601f19601f82011682018060405250810190610df091906113e5565b6001600160e01b031916145b6108c95760405162461bcd60e51b815260206004820152601060248201526f155394d0519157d49150d2541251539560821b60448201526064016104ee565b6000818152600260205260409020546001600160a01b031680610e8d5760405162461bcd60e51b815260206004820152600a6024820152691393d517d3525395115160b21b60448201526064016104ee565b6001600160a01b038116600081815260036020908152604080832080546000190190558583526002825280832080546001600160a01b031990811690915560049092528083208054909216909155518492907fddf252ad1be2c89b69c2b068fc378daa952ba7f163c4a11628f55a4df523b3ef908390a45050565b606060a06040510180604052602081039150506000815280825b600183039250600a81066030018353600a900480610f225750819003601f19909101908152919050565b6001600160a01b038216610f965760405162461bcd60e51b81526020600482015260116024820152701253959053125117d49150d25412515395607a1b60448201526064016104ee565b6000818152600260205260409020546001600160a01b031615610ffb5760405162461bcd60e51b815260206004820152600e60248201527f414c52454144595f4d494e54454400000000000000000000000000000000000060448201526064016104ee565b6001600160a01b038216600081815260036020908152604080832080546001019055848352600290915280822080546001600160a01b0319168417905551839291907fddf252ad1be2c89b69c2b068fc378daa952ba7f163c4a11628f55a4df523b3ef908290a45050565b6001600160e01b03198116811461107c57600080fd5b50565b60006020828403121561109157600080fd5b813561109c81611066565b9392505050565b60005b838110156110be5781810151838201526020016110a6565b50506000910152565b60208152600082518060208401526110e68160408501602087016110a3565b601f01601f19169190910160400192915050565b60006020828403121561110c57600080fd5b5035919050565b80356001600160a01b038116811461092f57600080fd5b6000806040838503121561113d57600080fd5b61114683611113565b946020939093013593505050565b60008060006060848603121561116957600080fd5b61117284611113565b925061118060208501611113565b9150604084013590509250925092565b634e487b7160e01b600052604160045260246000fd5b6000602082840312156111b857600080fd5b813567ffffffffffffffff808211156111d057600080fd5b818401915084601f8301126111e457600080fd5b8135818111156111f6576111f6611190565b604051601f8201601f19908116603f0116810190838211818310171561121e5761121e611190565b8160405282815287602084870101111561123757600080fd5b826020860160208301376000928101602001929092525095945050505050565b60006020828403121561126957600080fd5b61109c82611113565b6000806040838503121561128557600080fd5b61128e83611113565b9150602083013580151581146112a357600080fd5b809150509250929050565b6000806000806000608086880312156112c657600080fd5b6112cf86611113565b94506112dd60208701611113565b935060408601359250606086013567ffffffffffffffff8082111561130157600080fd5b818801915088601f83011261131557600080fd5b81358181111561132457600080fd5b89602082850101111561133657600080fd5b9699959850939650602001949392505050565b6000806040838503121561135c57600080fd5b61136583611113565b915061137360208401611113565b90509250929050565b600181811c9082168061139057607f821691505b6020821081036113b057634e487b7160e01b600052602260045260246000fd5b50919050565b634e487b7160e01b600052601160045260246000fd5b6000600182016113de576113de6113b6565b5060010190565b6000602082840312156113f757600080fd5b815161109c81611066565b808201808211156103d8576103d86113b6565b601f82111561087457600081815260208120601f850160051c8101602086101561143c5750805b601f850160051c820191505b8181101561145b57828155600101611448565b505050505050565b815167ffffffffffffffff81111561147d5761147d611190565b6114918161148b845461137c565b84611415565b602080601f8311600181146114c657600084156114ae5750858301515b600019600386901b1c1916600185901b17855561145b565b600085815260208120601f198616915b828110156114f5578886015182559484019460019091019084016114d6565b50858210156115135787850151600019600388901b60f8161c191681555b5050505050600190811b01905550565b60006001600160a01b03808816835280871660208401525084604083015260806060830152826080830152828460a0840137600060a0848401015260a0601f19601f85011683010190509695505050505050565b60008084546115858161137c565b6001828116801561159d57600181146115b2576115e1565b60ff19841687528215158302870194506115e1565b8860005260208060002060005b858110156115d85781548a8201529084019082016115bf565b50505082870194505b5050505083516115f58183602088016110a3565b0194935050505056fea2646970667358221220d37c1793a2c2a80e0430f2972d4e9f34454b4fef2fede714cb55ca3339344cbd64736f6c63430008110033",
  "linkReferences": {},
  "deployedLinkReferences": {}
}